{
  "contractName": "note",
  "abi": [
    {
      "anonymous": false,
      "inputs": [
        {
          "indexed": false,
          "internalType": "uint256",
          "name": "id",
          "type": "uint256"
        },
        {
          "indexed": false,
          "internalType": "string",
          "name": "title",
          "type": "string"
        },
        {
          "indexed": false,
          "internalType": "string",
          "name": "discription",
          "type": "string"
        }
      ],
      "name": "NoteCreated",
      "type": "event"
    },
    {
      "anonymous": false,
      "inputs": [
        {
          "indexed": false,
          "internalType": "uint256",
          "name": "id",
          "type": "uint256"
        }
      ],
      "name": "NoteDeleted",
      "type": "event"
    },
    {
      "constant": true,
      "inputs": [],
      "name": "noteCount",
      "outputs": [
        {
          "internalType": "uint256",
          "name": "",
          "type": "uint256"
        }
      ],
      "payable": false,
      "stateMutability": "view",
      "type": "function"
    },
    {
      "constant": true,
      "inputs": [
        {
          "internalType": "uint256",
          "name": "",
          "type": "uint256"
        }
      ],
      "name": "notes",
      "outputs": [
        {
          "internalType": "uint256",
          "name": "id",
          "type": "uint256"
        },
        {
          "internalType": "string",
          "name": "title",
          "type": "string"
        },
        {
          "internalType": "string",
          "name": "discription",
          "type": "string"
        }
      ],
      "payable": false,
      "stateMutability": "view",
      "type": "function"
    },
    {
      "constant": false,
      "inputs": [
        {
          "internalType": "string",
          "name": "_title",
          "type": "string"
        },
        {
          "internalType": "string",
          "name": "_discription",
          "type": "string"
        }
      ],
      "name": "createNote",
      "outputs": [],
      "payable": false,
      "stateMutability": "nonpayable",
      "type": "function"
    },
    {
      "constant": false,
      "inputs": [
        {
          "internalType": "uint256",
          "name": "_id",
          "type": "uint256"
        }
      ],
      "name": "deleteNote",
      "outputs": [],
      "payable": false,
      "stateMutability": "nonpayable",
      "type": "function"
    }
  ],
  "bytecode": "0x60806040526000805534801561001457600080fd5b506107b5806100246000396000f3fe608060405234801561001057600080fd5b506004361061004c5760003560e01c80632feaf81714610051578063317a4c76146101a357806361c3a7e6146101c1578063c47177f4146102db575b600080fd5b6101a16004803603604081101561006757600080fd5b810190808035906020019064010000000081111561008457600080fd5b82018360208201111561009657600080fd5b803590602001918460018302840111640100000000831117156100b857600080fd5b91908080601f016020809104026020016040519081016040528093929190818152602001838380828437600081840152601f19601f8201169050808301925050505050505091929192908035906020019064010000000081111561011b57600080fd5b82018360208201111561012d57600080fd5b8035906020019184600183028401116401000000008311171561014f57600080fd5b91908080601f016020809104026020016040519081016040528093929190818152602001838380828437600081840152601f19601f820116905080830192505050505050509192919290505050610309565b005b6101ab6104a9565b6040518082815260200191505060405180910390f35b6101ed600480360360208110156101d757600080fd5b81019080803590602001909291905050506104af565b604051808481526020018060200180602001838103835285818151815260200191508051906020019080838360005b8381101561023757808201518184015260208101905061021c565b50505050905090810190601f1680156102645780820380516001836020036101000a031916815260200191505b50838103825284818151815260200191508051906020019080838360005b8381101561029d578082015181840152602081019050610282565b50505050905090810190601f1680156102ca5780820380516001836020036101000a031916815260200191505b509550505050505060405180910390f35b610307600480360360208110156102f157600080fd5b8101908080359060200190929190505050610609565b005b60405180606001604052806000548152602001838152602001828152506001600080548152602001908152602001600020600082015181600001556020820151816001019080519060200190610360929190610693565b50604082015181600201908051906020019061037d929190610693565b509050507f7b17cec98a34b9bfb820ec7d14bde246bd07fe7d020da060964a681219ce97256000548383604051808481526020018060200180602001838103835285818151815260200191508051906020019080838360005b838110156103f15780820151818401526020810190506103d6565b50505050905090810190601f16801561041e5780820380516001836020036101000a031916815260200191505b50838103825284818151815260200191508051906020019080838360005b8381101561045757808201518184015260208101905061043c565b50505050905090810190601f1680156104845780820380516001836020036101000a031916815260200191505b509550505050505060405180910390a160008081548092919060010191905055505050565b60005481565b6001602052806000526040600020600091509050806000015490806001018054600181600116156101000203166002900480601f0160208091040260200160405190810160405280929190818152602001828054600181600116156101000203166002900480156105615780601f1061053657610100808354040283529160200191610561565b820191906000526020600020905b81548152906001019060200180831161054457829003601f168201915b505050505090806002018054600181600116156101000203166002900480601f0160208091040260200160405190810160405280929190818152602001828054600181600116156101000203166002900480156105ff5780601f106105d4576101008083540402835291602001916105ff565b820191906000526020600020905b8154815290600101906020018083116105e257829003601f168201915b5050505050905083565b600160008281526020019081526020016000206000808201600090556001820160006106359190610713565b6002820160006106459190610713565b50507f89af6ba62ab348dc535a3187c267090f834c868a3820cd552a7110c3dc3eedb8816040518082815260200191505060405180910390a160008081548092919060019003919050555050565b828054600181600116156101000203166002900490600052602060002090601f016020900481019282601f106106d457805160ff1916838001178555610702565b82800160010185558215610702579182015b828111156107015782518255916020019190600101906106e6565b5b50905061070f919061075b565b5090565b50805460018160011615610100020316600290046000825580601f106107395750610758565b601f016020900490600052602060002090810190610757919061075b565b5b50565b61077d91905b80821115610779576000816000905550600101610761565b5090565b9056fea265627a7a72315820d039c1cb00003a2dd8ad462ed50f652fae5c0d28d5b55c3179d07f4c79f5d0a964736f6c63430005100032",
  "source": "// SPDX-License-Identifier: MIT\npragma solidity >=0.4.22 <0.9.0;\n\ncontract note {\n    uint256 public noteCount = 0;\n    //  constructor() public {\n    // }\n\n    struct Note {\n        uint256 id;\n        string title;\n        string discription;\n    }\n\n    mapping(uint256 => Note) public notes;\n\n    event NoteCreated(uint256 id, string title, string discription);\n    event NoteDeleted(uint256 id);\n\n    function createNote(\n        string memory _title,\n        string memory _discription\n    ) public {\n        notes[noteCount] = Note(noteCount, _title, _discription);\n        emit NoteCreated(noteCount, _title, _discription);\n        noteCount++;\n    }\n\n    function deleteNote(uint256 _id) public {\n        delete notes[_id];\n        emit NoteDeleted(_id);\n        noteCount--;\n    }\n}\n",
  "sourcePath": "D:\\Development\\dAPP\\notes_app\\contracts\\note.sol",
  "compiler": {
    "name": "solc",
    "version": "0.5.16+commit.9c3226ce.Emscripten.clang"
  },
  "schemaVersion": "3.4.13",
  "updatedAt": "2023-04-16T14:53:51.248Z",
  "devdoc": {
    "methods": {}
  },
  "userdoc": {
    "methods": {}
  }
}